S01B00006275696C642F72656C656173652F7A69676265652E73333714
S2140040000810002061740000EDB600008D3E03002D
S2140040108D3E0300F5B60000FDB600008D3E0300A1
S2140040208D3E03008D3E03008D3E03008D3E030053
S21400403001B70000E88204008D3E03008D3E0300B9
S2140040408D3E03008D3E03008D3E0300796F000019
S2140040508D3E03008D3E03008D3E03008D3E030023
S2140040608D3E03008D3E030001BC00008D3E030024
S2140040708D3E03008D3E03008D3E03008D3E030003
S2140040808D3E03008D3E03008D3E03008D3E0300F3
S2140040908D3E03008D3E03008D3E03008D3E0300E3
S2140040A08D3E0300297800000D7800008D3E030049
S2140040B08D3E03008D3E03008D3E0300510B020033
S2140040C04D99030049990300B50202006399030065
S2140040D051990300110B02005599030045EF0100AA
S2140040E0910B02008D3E03008D3E03008D3E0300C3
S2140040F08D3E03008D3E03008D3E03008D3E030083
S2140041008D3E03008D3E03008D3E03008D3E030072
S2140041108D3E03008D3E03008D3E03008D3E030062
S2140041208D3E03008D3E03008D3E03008D3E030052
S2080041308D3E0300B8
S214004134F0B5114A114C124E00F00105E3695F0711
S21400414413D40DB9334213D103EA00078F4207D1C3
S2140041540B4A1A40002A14BF6FF001000020F0BD7D
S214004164013AEBD16FF00200F9E74FF0FF30F6E7C3
S2140041746FF00100F3E700BF80969800000003503C
S214004184020001000B4B70B5D96911F480310DD1D2
S21400419401244FF48072084E084DF46020462C64C7
S2140041A41A61FFF7C5FF3464EC6070BD6FF0010060
S2140041B4FBE700BF0000035000100350002003502C
S2140041C438B541F6713301220C4C0021E569E363EE
S2140041D40B4B05F48035DA600223606121202361ED
S2140041E4FFF7A6FF10B92120FFF7A2FF0122054B17
S2140041F4DA600DB10023E36338BD00BF000003504E
S214004204001003500020035070B5134C6061E3693E
S2140042145B071ED40E4656F8043B8D18A361AE42C7
S2140042240BD10423002121202361FFF781FF58B915
S214004234BDE870402120FFF77BBF08210846FFF742
S21400424477FF10B10423236170BD56F8043BA361C5
S214004254E5E74FF0FF30F7E7000003502DE9F84399
S214004264154641F67132164B8946DF69DA63012238
S214004274064603F58053DFF8508007F48037DA608B
S21400428455B9284601220F4BDA601FB10022A3F568
S2140042940053DA63BDE8F88306F5005404EA08041C
S2140042A4A41BAC4228BF2C46494622463046FFF79C
S2140042B4ABFF0028E6D12644A1442D1BE0E700BF4F
S2100042C4000003500020035000E0FFFF45
S2140042D02DE9F04F4FF0FD0BC9B09A460DF11B09C2
S2140042E09DF8503108AFCDF80C90CDF808B0019786
S2140042F0059303890446009383790E4690464188C9
S2140043008288407811F042F9054650B10090A388A3
S214004310002062883A4911F07DFC284649B0BDE885
S214004320F08F99F8000032F02DFE38B12846A388A9
S2140043306288344911F06EFC8D25EEE75A46394600
S21400434099F8000032F0C6FD8346002851D0529BF3
S2140043501BB1BDF84C3198424BD8002399F8009019
S2140043600793A9F14102012A5FFA8BF123D8384658
S2140043700139254ADFF898C05FFA81FE734513DBE2
S214004380059B04210792C3B907AF18221F489FED6B
S2140043901A7B02FB060420460A460830394684ED9E
S2140043A0027B16F08DF911E010F8011F0133514021
S2140043B00CFB01F2E2E7059B33B123464A4638463A
S2140043C000960FF00BF8A8E70829DED9B8F1000F21
S2140043D001D088F80090BAF1000F01D0AAF800B01A
S2140043E0529B002B99D05A46184608A916F068F931
S2140043F093E7012591E700BF0000000000000000E1
S214004400A02C0400D52C0400C59D1C818010002023
S21400441093010001000000002DE9F04F93B0CDE9B4
S2140044200A32DDE91C530E9353EC102BCDE908013C
S214004430104619468DED060B1E9E15F0CBFB80B17F
S214004440DDE906014FF0FF32C54B15F0EBFB40B936
S214004450DDE906014FF0FF326FF4801315F0C4FB60
S21400446070B1DDE908019DED060B0E9B1E96CDE9A9
S2140044701C53DDE90A3213B0BDE8F04F00F088B9EE
S2140044800022DDE90601002315F0AEFB002800F04F
S2140044903381DDE906A303F1004BCBF30A5016F493
S2140044A08063A0F2FF3008BF06250F9315F0C0F812
S2140044B09BA3D3E9002315F025F99BA3D3E900239A
S2140044C014F06AFFCBF31304894644F07F5180460C
S2140044D00022A44B504641F4401114F05BFF94A315
S2140044E0D3E9002315F00EF902460B46404649462E
S2140044F014F052FF15F0A0FB044615F099F88EA3B1
S214004500D3E900238046894615F0FCF80022964B36
S21400451014F042FF15F090FB89A3D3E90023074669
S2140045204946404615F0EEF880463846894615F06E
S2140045307FF885A3D3E9002315F0E4F802460B467E
S2140045404046494614F026FF02460B46CDE90C23AA
S21400455015F0D8F8DDE90C23804689461046194642
S21400456014F01AFF0022CDE91001804B4046494660
S21400457015F0F2F900227E4B14F00EFF02460B46B1
S2140045804046494615F0E8F900227A4B14F004FF3D
S21400459002460B464046494615F0DEF9DDE90C2397
S2140045A08046894600204FF0804114F0F3FE024614
S2140045B00B464046494614F0EFFE02460B46DDE940
S2140045C0100115F0C9F907F2FF3700226A4B14F004
S2140045D0E3FE00223B0515F095F852465B46804602
S2140045E0894615F01FFB002840F08980CDE90C892C
S2140045F004F16303C62B8CBF0527042731051BD5A2
S21400460053A3D3E900235046594615F001FB002872
S2140046107FD051A3D3E900235046594615F0E4FA5B
S214004620002876D00027A542C6BF2C1B04F1FF3514
S21400463000253C4646F480660E9B9F422CBF4FF0FA
S2140046400008A3EB070816F0020903D0002F18BFD6
S2140046504FF000083CB1DDE90C235046594615F0F2
S2140046607BF982468B46DDE906010022002315F021
S214004670BBFA10B10BF100439B46DDE9080126F4B6
S2140046800063CDE90183DDE90A324BEC10AB0095FF
S21400469000F07EF802465FB3DDE9091316F0200F3E
S2140046A000F10105089E0CBF65204520B047DDE9F6
S2140046B008010523002205930A23002CCDE90232C7
S2140046C007F1FF374FEAD473B8BF64422A46019316
S2140046D004970A9B009434F0B1FA0246B9F1000F31
S2140046E006D00B9BC41A0B9B1A190E9BA34245D8E7
S2140046F0104613B0BDE8F08FDDE906ABCDE600222C
S214004700404649461A4B15F027F9013CCDE90C0105
S2140047106EE7002D90D00F9B002B8DD0013D8BE7D0
S214004720FB799F501344D33FB3C8608B288AC63F9B
S21400473061436F63A787D23F71A379094F930A40FD
S2140047401655B5BBB16B0240EF39FAFE422EE63F76
S2140047502D431CEBE2361A3F0000000080842E41F9
S214004760FFFFEF7F0000F83F0000E03F00002C4016
S21400477000002440000018400000F03F2020DDE943
S2140047800913089DA8470134ADE700BF00000000EC
S2140047902DE9F04F5BEC10AB97B0CDE90501DDE9F4
S2140047A02058CDE90723504652465B465946229F7D
S2140047B015F010FA70B90323CDE902870193AA4BCE
S2140047C00093DDE90501DDE9072334F069F917B048
S2140047D0BDE8F08F4FF0FF326FF480135046594615
S2140047E015F002FA28B10423CDE9028701939F4B06
S2140047F0E6E74FF0FF32504659469D4B15F012FA49
S21400480068B19C4A07F00403002B08BF03229A4BAA
S2140048101CBF13460422CDE902870192D0E750461A
S2140048208DA3D3E90023594615F0FCF938B98CA3BB
S214004830D3E900235046594615F0D6F968B1DDE9AC
S2140048400723DDE905014BEC10ABCDE92187209568
S21400485017B0BDE8F04FFFF7DFBD0022002350463B
S214004860594615F0C1F9002800F091805B46524683
S2140048700020002114F08EFD012382468B4609930A
S21400488017F4806400F08580092D40F285800024AE
S21400489030210EABA5F109020134202C03F8011BD0
S2140048A0A5EB040901D09442F6D15946504615F0BE
S2140048B0C3F9724B054603EBC90393ED007B8DED00
S2140048C00A7B14F0B5FE02460B465046594614F0D5
S2140048D061FDDDE90A2314F015FF02460B46CDE91B
S2140048E00C2315F0D1F9064614F092FE02460B464C
S2140048F0DDE90C0114F04EFD02460B46CDE90C2313
S21400490000225F4B15F08EF9002848D0013630465D
S21400491014F07EFE02460B46DDE90A0115F06EF93C
S21400492008B100260135B9F1000F45D1284614F02C
S2140049307FFE02460B465046594614F02BFD0022D9
S2140049404F4B15F051F910B9E90700D501350A218A
S2140049500EAB1A19202C0AD095FBF1F001FB10556E
S214004960303502F8015B013405460028F2D107F025
S2140049700302012A55D1B8F1000F52D0099A12B994
S21400498017F00C0F01D008F1FF38302240E00990F4
S21400499076E74FF0060988E7A946002485E7002257
S2140049A0DDE90C01364B15F01FF90028BBD10EB11E
S2140049B0F007B8D50136B6E70A210EAB1A19202C37
S2140049C00DD0B6FBF1F001FB1063092E03F13003A6
S2140049D009F1FF3904F1010402F8013B11D8302136
S2140049E0A1440EAA202CB2D04C4504F101030AD1F2
S2140049F004F158020DEB02042E2204F8202C1C466B
S214004A00A5E70646DBE7A1541C46EBE71A5501343A
S214004A10444506D2202CF9D1CDE9028701940EAB8D
S214004A20CEE6202CF8D0099B3BB12D2204F158038A
S214004A306B4403F8202C0134EEE77A0704D504F122
S214004A4058032B226B44F4E73B07E5D504F15803E3
S214004A5020226B44EDE700BF0000000065CDCD418D
S214004A600000000065CDCDC18F4A0400934A0400C3
S214004A70FFFFEF7F864A04008B4A04002092040062
S214004A800000E03F0000000070B58EB02C22002130
S214004A9003A815F085FC64234FF002320893CDE995
S214004AA005230B2301218DF834305B4B8DF8101055
S214004AB01D880D4040F0A980084638F07DFB0A228C
S214004AC0564B574C1A704FF42873ADF812304FF00F
S214004AD0FF332360534B54491B8820460B82534BAD
S214004AE0534A1B68CD828B61524B0D621B884B82EA
S214004AF0514B1B68CB611CF0C1F820B14FF41B7101
S214004B004E4839F097FC0521206834F080FA20B131
S214004B1040F27D21494839F08DFC206814F0F6FB00
S214004B20474B2068196834F035FB0C2538F0ACFF8D
S214004B306843099038F0A8FF68430DEB050107901D
S214004B40206816F0EFFA20B140F295213B4839F084
S214004B5071FC25681EF03CFC00220146284634F015
S214004B6091FB20B140F29721344839F063FC40F2C3
S214004B700353344D344E2B80052396F90000AB705A
S214004B807F2801D11CF070F93378EB7038F07CFF89
S214004B9000EB80008000A88038F076FF0023C0007D
S214004BA04FF0FF31E880AB604FF0FF3018A3D3E939
S214004BB0002338F053FC2549206834F01CFB20689D
S214004BC002A934F038FF20B14FF434711B4839F095
S214004BD031FC042220680DEB020134F0B0FA042800
S214004BE004D040F2D721154839F024FC01A9012051
S214004BF033F0BBFE06F0BEFD01201CF0C7FD2FF013
S214004C00A1FE1CF0EDFD1CF0C7F80EB070BD00BF95
S214004C100A0020FF42030000EE5B002044630020F1
S214004C202054002052AB0400F069002058AB04006A
S214004C30E1D1030050AB040054AB0400BE81040075
S214004C404067002014540020026D002055D2030057
S214004C500348044B834202D0034B03B11847704706
S214004C60346D0020346D002000000000064B07491C
S214004C70C91A891048BF0131491003D0044B0BB143
S214004C8001481847704700BF346D0020346D00207F
S214004C900000000010B5064C237843B9FFF7D8FF94
S214004CA0044B13B10448AFF300800123237010BDFA
S214004CB06816002000000000F8CE040008B5044B7B
S214004CC01BB104490448AFF30080BDE80840CDE7B7
S214004CD0000000006C160020F8CE0400A3F5803A11
S214004CE0704700BF154B002B08BF114B9D46FFF7C2
S214004CF0F5FF00218B460F461148124A121A15F08E
S214004D004FFB0C4B002B00D098470B4B002B00D0D2
S214004D1098470020002104000D000B4815F086FE81
S214004D2015F016FB200029002EF0FFFD15F06CFE96
S214004D30000008000000000000000000081000202E
S214004D4008100020A863002095AA010007B50121DD
S214004D5020200DF1070200F0D1FE50B101212020E5
S214004D600DF107028DF8071000F0D8FE03B05DF8CD
S214004D7004FB9DF807100129F8D00122084814F01A
S214004D80FDF901210DF1070220208DF8071000F033
S214004D90C5FE2EF04EFD4FF4FA6000F0BFFDE5E7CD
S214004DA068E8030038B501F021F8012805D001F0C5
S214004DB01DF8022801D001F031F8064D2B783BB9DA
S214004DC001F014F80128044602D12EF0A5FD2C703F
S214004DD038BD00BFDA5C002070B50C46088800F0CD
S214004DE009FE94F844300546834214D004F11C06AC
S214004DF030462EF02DFD84F844502EF02DFD322145
S214004E00A06430462EF01FFD94F844100248BDE81A
S214004E10704014F0B3B970BD90E8030010B50446B6
S214004E20008800F0E7FDA37884F84400834202BFC0
S214004E300123E3702371074B04F11C00C4E9073417
S214004E4000F0B2FE224620880349BDE8104000F07C
S214004E50E9BD00BF13360300D94D000070B5C37816
S214004E6004460D461646002B34D1D1B1214814F025
S214004E7085F90123E370E36CA6600BB1E06D9847FB
S214004E80E368F61A63699E4221D2217E1A480131F0
S214004E90C9B2217614F072F9A36D13B1217EE06DCC
S214004EA09847E5702EF0D8FC15B3237903BBA268AB
S214004EB0238A801A83421BD201231048237114F0E0
S214004EC05DF9236DA3B1E06DBDE87040184701237E
S214004ED02376E6E70029E4D1094814F04FF9636D1C
S214004EE0E660E5702571002BDBD0E06D9847D8E7CB
S214004EF070BD00BFADE80300BEE80300ECE80300A9
S214004F00D9E80300F8B51E46838804460D461746C2
S214004F100BB18680F8BD817800882EF09BFB0123BC
S214004F20E370084BE5802781A680C4E903340C347F
S214004F30204600F039FE29462046BDE8F8402EF00F
S214004F4082BC00BF5F36030010B501790446B1FA93
S214004F5081F1008849092EF0F4FB21796088B1FAC6
S214004F6081F149092EF0EDFB034B1A68A24204BFFB
S214004F7000221A6010BD00BF8416002070B5437969
S214004F800446A3B100880E4E04F10805336813B139
S214004F900C4B1B786BB121792EF0D3FB64210A4BA6
S214004FA03460A3602846BDE870402EF04CBC4088B4
S214004FB0E9E7064814F0E2F8054B3221A360F1E772
S214004FC084160020DB5C0020494F000002E9030045
S214004FD07D4F000010B50446E0B10F4814F0CEF83F
S214004FE001236371A37953B9217920882EF0A9FB98
S214004FF0236B7BB1606B0121BDE81040184720464B
S214005000FFF7A2FF04F108002EF022FC2046FFF76F
S214005010B5FFEDE710BD00BF38E9030010B5044644
S214005020F8B1104814F0AAF800236371A3796BB99D
S21400503021792088B1FA81F149092EF082FB236B91
S2140050407BB1606B0021BDE8104018472046FFF793
S2140050507BFF04F108002EF0FBFB2046FFF78EFFD7
S214005060EDE710BD43E9030010B5044668B10748F4
S21400507014F084F8637920461BB1BDE81040FFF7B2
S214005080CDBFBDE81040FFF7A5BF10BD4FE9030038
S21400509010B50E4C0E48214614F070F882210D48CB
S2140050A014F06CF882210220A21E00F037FD0146A3
S2140050B030B134F8022C0848BDE8104014F05EB851
S2140050C00648BDE8104014F059B800BF72550020DD
S2140050D05EE9030079E9030084E90300C8E90300F8
S2140050E038B50E4C82212246022000F007FDA51C92
S2140050F0014650B122880A4814F040F8412228465A
S214005100084915F0DDFA4023238035F8021C064ACC
S2140051100648BDE8384014F031B800BF705500208E
S214005120D3E9030053EA03007255002031EA030076
S21400513010B504460146084814F020F8012C07482C
S21400514005D12EF0E4FABDE8104001F05DBABDE8E6
S21400515010402EF0DEBA00BF94EA0300CC660020B2
S21400516070B50024184D194E3378A34217DC00247E
S214005170174D184E3378A34217DC0024164D174EF1
S2140051803378A34217DC00F031FE0128144818D10A
S2140051902EF0BDFABDE87040124800F039BE284631
S2140051A0FFF73CFE01346035DEE728462EF095FA20
S2140051B001343435DEE728462EF0C8FA0134383597
S2140051C0DEE72EF0A6FAE5E758210020E15C002095
S2140051D078250020E25C0020281F0020E05C0020EC
S2140051E0CC660020315100002DE9F04F87B0FFF764
S2140051F077FFAC4B05A805932EF0D1FA054614F0C0
S214005200CBFFA94CC2B21F2A627004D9A74813F07C
S214005210B5FF00F077FB2946A01C15F051FA05A84B
S2140052202EF0BDFA054614F0B7FFC2B21F2A84F866
S214005230212001D99E48EAE7294604F1220015F00C
S2140052403FFA05A82EF0ABFA002604462578002D76
S21400525040F08480974CFFF783FF2378DFF894A212
S214005260DFF89482944E00939AF8003098F8002065
S2140052703178924813F082FF98F800203378904FE8
S21400528013449AF800204FF48270134422784FF6A5
S214005290FF711344DBB2012B38BF01233A46029359
S2140052A02B463D46029C01339C42137050809180F1
S2140052B002F10C02F6DC4FF0000B824C80497A4873
S2140052C0AC6000F059FEE879AB6800EB400003EBF9
S2140052D0800000F05DFCEB79DFF8FC910133EB71A8
S2140052E033785B4500F34A8200274FF00C09764A74
S2140052F0DFF8CCB198F800003178B84200F352825B
S21400530047180C21002501FB07B19AF800009423EA
S214005310A8426E4A00F364820C2598F800300027F5
S2140053204FF070083678DFF8D4A11E44064405FB1B
S21400533006B5604B1B78BB4200F365820299604855
S21400534000F094FC059B57491A468B4240F06E824B
S2140053505F4807B0BDE8F04F13F010BF532D0FD1D4
S21400536063784C2B40F00C81A378502B40F00881DA
S2140053700122584B1A7005A82EF011FA044665E76C
S214005380582D35D8412DF6D9423D162DF3D801A318
S21400539053F825F01D540000F15600007753000026
S2140053A077530000775300007753000077530000D0
S2140053B00155000077530000775300005954000051
S2140053C00354000077530000775300007753000023
S2140053D077530000EF55000081550000775300001A
S2140053E07753000077530000775300005B560000A9
S2140053F0692DC0D1601C2EF0DFF980B22EF015FAB0
S214005400B9E72D4B012019780023334A994202F15F
S214005410A402B0DD02F8A20C0133F7E7601C00F02E
S21400542055FB0546E01C2EF0E9F901210246284608
S21400543000F09AFA60222948294C03785A43A118AA
S214005440A5524FF4FA620A824FF448724A61254A1E
S2140054500A65013303708EE7601C00F037FB0022FC
S21400546034268046204F114600F07EFA38781F4DCD
S21400547006FB00F325F80380EA18E3781046693B3C
S21400548018BF012393702EF028F93B78002103FB08
S21400549006550126164A33441560516016743B7053
S2140054A069E700BF72550020EC650020B3EA0300F0
S2140054B0CAEA0300DC5C0020DF5C0020DAEA0300B6
S2140054C088160020001700208C1B0020D019002012
S2140054D02AEB0300DB5C00208C1C0020E15C002033
S2140054E0582100207F370300E25C0020782500204A
S2140054F0CC660020DD5C0020DE5C002080180020EA
S214005500601C00F0E3FA00221146804600F02CFAF8
S2140055103422CB4DCB4F287802FB00F327F80380CC
S214005520F918E3780846693B18BF01238B702EF004
S214005530D4F8C54A00231146906BB8B901EB831125
S21400554034232A7802FB03738B635EB9BF4A334663
S214005550114652F8040B78B93422287800FB027200
S21400556041F823202B7801332B7004E70133042BFA
S21400557002F14002E0D1E8E70133042BE9D1F1E77C
S214005580601C00F0A3FA0746E01C2EF037F9012154
S2140055900246384600F0E8F96023AD4DAD4C2A7857
S2140055A0A4205343E118E7524FF44873AA4F0B82E6
S2140055B04B61AA4BDFF8C8C28B653B7858430CEBAF
S2140055C000010CF800304FF400704880032008718A
S2140055D0887102EB420004EB401432200133DBB248
S2140055E001324B718C6081F8A0002A7057E7601C6E
S2140055F000F06CFA00224FF038088146984F1146AA
S21400560000F0B2F93B78974D08FB03F325F80390BA
S2140056104FF00109EA1882F80490E3786BB1E01CB9
S21400562000F054FA00220446114600F09DF93B783B
S21400563008FB03535C8083F806908B48824A037805
S21400564099015354397802EB8314C1EBC10205EB80
S214005650C20262634A1C3A70FBE6601C00F036FA2F
S2140056600746E01C00F032FA0546601D2EF0C6F82C
S214005670044602460121384600F076F922466024A8
S2140056802846012100F070F9DFF8C4C1714A9CF881
S2140056900030DFF8C8E104FB03F0111817524FF48E
S2140056A04870C1F858E008824861591CC9B24C439A
S2140056B01719155394246D4D38827861981C8CF810
S2140056C000002878C7F858E04443694F03EB4303CB
S2140056D001EB410107EB040C02EB431302EB411212
S2140056E03855CCF80430CCF808200130287042E653
S2140056F0601C00F0EBF90746E01C00F0E7F900221A
S21400570005461146384600F02FF900223824114687
S214005710284600F029F95248524A03784FF0010E05
S21400572004FB03FC02EB0C0122F80C704FF0000C9B
S21400573081F804E081F806C003EB0E01C9B24C43C1
S214005740171915539C1C047070244A4D87F806C020
S214005750287887F804E04443474FC3EBC303C1EB04
S214005760C10107EB040C02EBC30302EBC102385580
S214005770CCF80430CCF808207044B7E7BBF1000F33
S21400578006D017F8053C03EB430304EB8304BC6028
S2140057903946484601F0E6F90BF1010B09F1A40978
S2140057A00C379DE579180AD0481E09FB00B0C07971
S2140057B000EB400004EB800409FB01B08460104657
S2140057C009FB0151039200F0CFFF31782B48394492
S2140057D009FB015100F0FEFE039A0137403289E5CD
S2140057E0FD4218BF11F8050C03911EBF00EB4000E8
S2140057F004EB80048C6003FB052000F003FE039995
S21400580001350C3181E5F74218BF15F8053C2946ED
S2140058101CBF03EB430304EB830408FB07A018BF7D
S214005820AC6000F0C5FC01370C3582E513F8011DAD
S21400583000297FF488AD3B2102F8011C83E500BFF8
S214005840E25C0020782500208C1B0020CC6600201F
S214005850E15C002058210020DF5C00208337030035
S214005860E05C0020281F0020DE5C0020DD5C0020BD
S214005870D0190020DC5C0020801800201C1F0020AF
S2140058808C1C002007B5022101200DF1060200F055
S21400589035F938B9044813F071FCBDF8060003B0BA
S2140058A05DF804FB0020FAE747EB030007B502218A
S2140058B0ADF806000DF10602012000F02FF90146B2
S2140058C010B1034813F05AFC03B05DF804FB00BFA8
S2140058D068EB030010B5FFF7D5FF044601460748FE
S2140058E013F04CFC0121064813F048FC24B9BDE82F
S2140058F010400120FFF7DABF10BD00BF98EB030091
S214005900AAEB030008B5044813F038FC00F016F9BB
S2140059102DF08FFF2DF08AFFC0EB030038B504464C
S214005920084D094B28462B6000F03EF9002C18BFA6
S21400593021462846BDE8384008BF4FF496712DF042
S21400594082BF00BF7C260020D737030010B5044C6A
S214005950237823B9034838F019FD0123237010BDBE
S214005960E45C00204485040073B506460D461446E4
S214005970FFF7ECFF0E4A330AD35C8DF805608DF80E
S21400598004307DB1012C04D0032C09D00022012163
S21400599001E02246022101A801F01AFE02B070BD05
S2140059A00022F7E704212A460DEB0100F4E700BFCA
S2140059B0C382040007B5064A030AD35C8DF80500C7
S2140059C001A88DF8043001F037FE03B05DF804FB43
S2140059D0C382040007B5064A030AD35C8DF80500A7
S2140059E001A88DF8043001F053FE03B05DF804FB07
S2140059F0C382040007B50A4A030AD35C8DF8050083
S214005A008DF8043000230DF1030101A88DF8033052
S214005A1001F06AFE9DF8030003B05DF804FB00BFCA
S214005A20C38204002DE9F043214C85B00646884623
S214005A309146FFF78BFF23781BB901F0ADFD0123DC
S214005A4023701C4A330AD35C30228DF80C300023B6
S214005A50194F8DF80D6002FB03F4395DE51901BBA3
S214005A6001233B554FF0FF3304F11000134938442F
S214005A70AB606E80C5F80480C5F80C9008F09AFDFF
S214005A8004F10801042239440D4B009503A801F0E7
S214005A9059FEA96802460B4813F070FB05B0BDE836
S214005AA0F0830133102BD6D1074813F067FBF5E7D8
S214005AB0E35C0020C3820400A4260020DD37030038
S214005AC0EF370300CDEB0300FBEB030080B1027859
S214005AD0A2F14103032B0BD840783038C0B2082817
S214005AE006D8054B134413F8413C40EA03207047A0
S214005AF04FF6FF70704700BFC382040008B50B4620
S214005B0042B101460448006802F060FFBDE8084064
S214005B102DF085BE022008BD3867002008B50B466C
S214005B2042B101460448006803F0D8F8BDE80840D2
S214005B302DF075BE022008BD38670020F0B500269F
S214005B40124F8DB0FF2300930A223346386802A90D
S214005B502EF0ADFCC0B102AB1D4603EB800404E0A2
S214005B6055F8043BB34228BF5E1CAC423868E9D9FE
S214005B70296803F039FA0028F2D02D28F0D00DB0AD
S214005B80BDE8F0402DF04BBE0DB0F0BD38670020EC
S214005B9028B1034B0360034B4360002383607047C8
S214005BA019000003E0660020FF2307B50021044A21
S214005BB00093083008F082FC03B05DF804FB00BFD9
S214005BC0413803000B460449024608680349097831
S214005BD008B12DF048BE7047AC290020E65C0020D6
S214005BE0F8B50C4618B122210E4838F023FC24687C
S214005BF023685E795F8830463946FFF7E3FF08B9C9
S214005C008120F8BD8568002DFAD0A368E27C39466D
S214005C103046A84704460028F2D131F01FFF204640
S214005C20EFE700BF23EC0300F8B515460D4A04461F
S214005C3010680D4A0B46117850B122462DF013FE1F
S214005C40034628B100210C27C678B14201DB0020AC
S214005C50F8BD07FB01F45A681019125BAA42F7D088
S214005C600131F2E7AC290020E65C00202DE9F74F71
S214005C7004460D460026454B454F1860454B1970A7
S214005C8033010021F85C01360FF06EFA0C2EF7D1C6
S214005C900C2D28BF0C254FF0000901953C4EDFF86F
S214005CA000A13D4DDFF8FC80019B4B4502DC03B0B4
S214005CB0BDE8F08F23784FF0000B33706388738055
S214005CC0A388B380A379C6F80880B371E379C8F8CF
S214005CD0005088F804304FF00003A768A8F8063094
S214005CE0E3795B450ADC012116F8100B0FF03CFA4D
S214005CF008F1080809F101090C34D5E74FF0000354
S214005D0038886B812880FB784FF0000C2B81BA789E
S214005D10C5F804A0002A00920CBF802240222A73F5
S214005D2079680AF10C02634513DC03EB43030AEBC4
S214005D30830ABB6843B1009A4FF6FF71B2FA82F24B
S214005D40164B520931F01AFE14350BF1010B0C37C5
S214005D50C6E7B1F800E00CF1010C22F80CEC91F863
S214005D6002E00C3202F816EC91F804E00C3102F86E
S214005D7015EC11F809ECBEF1010F14BF4FF0100E30
S214005D804FF0110E02F814ECCDE700BFAC2900204E
S214005D9074400020E65C0020B02F0020E15B00008D
S214005DA0B029002030320020014B1860704700BF39
S214005DB0A829002070B5128805460E46FFF734FF66
S214005DC0044670B102790499806814F03BFB064BD8
S214005DD01B680BB9002070BD3146284622889847BC
S214005DE0F8E78620F7E700BFA829002008B50EF0E0
S214005DF057FA022806D0012806D0044B187840002F
S214005E00C0B208BD0120FCE70220FAE7E55C0020EE
S214005E10014B1860704700BFA4290020034B1A7876
S214005E201AB901221A700AF041BA7047E55C0020E0
S214005E300022064B10B51A70054B1C682CB1FFF7F4
S214005E40D5FF2346BDE81040184710BDE55C00208E
S214005E50A429002037B50446002832D00EF020FAD8
S214005E60022830D1608932F076F9E079237A00385A
S214005E7018BF0120012B637A08BF40F008000BB161
S214005E8040F0100063890BB140F00400257CA18827
S214005E90A2790DB1E36873B90C4B0FF041FD217880
S214005EA008460FF0B9FD31F060FC002814BF03204F
S214005EB0002003B030BDCDE90035054B0FF030FDB6
S214005EC0EDE70220F5E70120F3E700BFB93904004B
S214005ED0BC08040008B50CF047FB014630B1044886
S214005EE013F04CF9BDE808400CF0E2BE08BD00BF58
S214005EF095EC0300034B044A5B7C012103201370DE
S214005F00FFF70CBECC660020E75C002010B5044608
S214005F10FFF7F0FFB4F57F4F0BD100240A4B1A8829
S214005F2013449C70FFF7B4F82046BDE81040FFF716
S214005F30F5BC4FF601739C4204D1BDE810400348FF
S214005F402DF0CDBB10BD00BF70550020CC660020E4
S214005F5010B5074C012122460320FFF7CFFD28B9D4
S214005F602378044A003B18BF0123537410BD00BFBA
S214005F70E75C0020CC6600200822F8B532244B4BA4
S214005F8033251A7030225C70DC7036249A705A7191
S214005F90DA714FF400121C711C72454C4264C464E2
S214005FA0444C01220465444C9D718465434C85181D
S214005FB0C465434CC5674466424C434D8466434CB7
S214005FC0C0F880500467424C80F84820446720247C
S214005FD080F8784080F8844000F12104C0F88840BA
S214005FE03C4C80F85420C0F88C403B4C80F8602035
S214005FF0C0F89440394C80F86C20C0F8984080F87F
S2140060009020374C80F89C20C0F8B830354BC0F84C
S214006010A440C0F8BC300F24022380F8A84080F8C3
S214006020C030314C314BC0F8AC40C0F8C430304CB6
S214006030304BC0F8B040C0F8C830092482232E4D3B
S21400604080F8B44080F8CC302C7C2C4BC0F8A000F4
S214006050C0F8D03044B12A4B80F8D820C0F8D430ED
S21400606005F11103C0F8DC304FF0000CCA798E68D9
S21400607002EB42039F00443006EB830326F807C07A
S214006080586001200C349870DC701318CB71FFF741
S2140060905FFFFFF7ABFE012806D12B7C23B1BDE8DE
S2140060A0F84015482DF01BBBF8BD00BFE85C00208B
S2140060B0DC82040001002000DB82040002002000D5
S2140060C0DA8204000300200005004200D9820400A2
S2140060D00400420007003000D882040012001001BD
S2140060E000404200FDFF2100C7820400D682040063
S2140060F00600420000FF4401CC66002070550020D8
S21400610001FF1001437B044A01211370007811300F
S214006110C0B2FFF703BD00BFF25C002038B50446EE
S2140061200078054D11302A460121C0B2FFF7E6FC83
S21400613008B92B78637338BDF25C0020024B53F825
S21400614020002DF077BC00BF90320020012908B552
S21400615006D0022907D049B92DF063FC002008BDFF
S2140061602DF062FCFAE72DF062FCF7E7024813F028
S21400617005F80120F3E700BFC2EC030011461A46FB
S214006180024B53F82000FFF7E1BF00BF903200201B
S214006190002310B5044683810364A0F844304830D9
S2140061A0FFF702FD014BC4E9123410BD1B3A030091
S2140061B038B504460B781A4A43700D4642F8230059
S2140061C0FFF7E6FF2046FFF7A9FF4FF440132361D1
S2140061D00123144A2375A261134A84F82030E26131
S2140061E0124A84F82C306262114A84F83830A2626F
S2140061F004F10C0222630F4A04F10D036263E363A9
S214006200EA79A86802EB420300EB830110344C6085
S214006210094C40F82340094B8B60531CEB7138BD8A
S21400622090320020F15C002008002000A46C0020C2
S21400623000FF300001FF1001020101047D61000033
S21400624010B47024427B0D48013A012904FB020079
S21400625006D0022908D059B95DF8044B2DF0E1BBF1
S2140062605DF8044B2DF0E0BB5DF8044B2DF0DFBB72
S21400627003485DF8044B12F081BF00BF8018002071
S214006280DEEC0300B0F85C302DE9F0418B420446AA
S2140062900E4638D0437B077C8BB31C4A12789A4252
S2140062A02DD370251A4A013B05FB032390F80F8077
S2140062B01B7B42462DF0CCFBB845054601D1FF2896
S2140062C01FD13A463146204694F890302DF0C0FB58
S2140062D02F460546552212216078A4F85C602DF002
S2140062E0E4FAFF2F03D039462046FFF7A9FFFF2D1B
S2140062F009D029462046BDE8F0412DF0E9BBFF2530
S214006300DFE70746E6E7BDE8F08100BFDC5C00207B
S2140063108018002041688268C978D27849B112B1E5
S2140063200321FFF7AFBF837B002B0CBF01210221A7
S214006330F7E72AB1837B002B0CBF02210121F0E78F
S214006340014812F01BBF00BFEFEC0300037BD3B184
S2140063504368DA7812B18268D278A2B91B7933B171
S214006360837B002B0CBF04210521FFF78BBF8368BE
S2140063701B792BB1837B002B0CBF05210421F4E78E
S214006380014812F0FBBE704721ED0300084A437B2C
S21400639005211370837B5370C37B9370037CD3708B
S2140063A0037B137100780E30C0B2FFF7B7BB00BF97
S2140063B0F35C002038B5044600780C4D0E302A46B3
S2140063C00521C0B2FFF79AFB20B1BDE83840084867
S2140063D012F0D4BE2B7863736B78A373AB78E37339
S2140063E0EB7823742B79237338BD00BFF35C002051
S2140063F05DED0300024B53F820002DF0B3BB00BF49
S214006400B8320020F8B504460B78424A43700D4671
S21400641042F82300404E2DF0C3FBFFF7CBFF626827
S214006420A3683E483E49D6641165D4655065C3E905
S2140064301410DE64DC654FF0987302266361012356
S21400644004F10C01E16137491032216204F10D01BB
S214006450A16235492376E16204F10E016163334996
S21400646084F82430A16304F10F012164304984F8D4
S2140064703030616404F11001E1642E4984F83C3048
S21400648084F84830216584F85460A265E879A968E4
S21400649000EB400201EB820704F1140CC7F804C0BD
S2140064A04FF4817C244F41F82270C218D2B202EB1E
S2140064B0420241F822C001EB820700227A601F4A9E
S2140064C084F8703022661E4A84F88830A2661D4A18
S2140064D01D4BE2661D4AC4F88C3062671C4A83195D
S2140064E0A26704F15C02C4F88020DBB2194A03EB11
S2140064F04303C4F8842084F8646084F87C6001EB6D
S214006500830260345460144A033041F82320E87153
S214006510F8BD00BFB832002015630000273B03001B
S2140065204D6300000100200102001001030030014D
S214006530040030010500210101FC01064A0021008B
S214006540DE82040051001000E0820400E1820400B4
S214006550550021006F0018001200010470B50D46AA
S2140065600646144613460A460146164812F006FE2C
S21400657025B92046BDE87040FFF7C8BC072D05D1F9
S21400658021463046BDE8704000F0B2BA4FF60143EF
S2140065909D4205D121463046BDE87040FFF72ABF30
S2140065A0062D05D121463046BDE8704000F096B86D
S2140065B0B5F5817F05D121463046BDE87040FFF72E
S2140065C0BDBD70BD8CED03000148FFF7EDBB00BFFD
S2140065D05D6500004FF4C01330B5036001230371FE
S2140065E0074B8C688360CA7902EB420304EB830591
S2140065F06860044844F82300531CCB7130BD00BFCC
S214006600E28204000400010138B50024044D55F868
S214006610040B08B12DF0D4FA01340A2CF7D138BD9A
S214006620E0320020042908B509D15AB113781BB905
S2140066302DF0F1FA002008BD2DF0E3FAFAE7024843
S21400664012F09CFD0120F6E7BFED030011461A4646
S214006650024B53F82000FFF7E5BF00BFE0320020F2
S2140066600229024608B50ED004D839B910462DF0D6
S214006670D2FA06E04029F9D0412907D110462DF07C
S214006680C0FA002008BD2DF0D0FAFAE7024812F052
S21400669075FD0120F6E700BFDFED030011461A4640
S2140066A0024B53F82000FFF7DBBF00BFE0320020AC
S2140066B0426B094B52791A7082785A70C2789A7077
S2140066C0826B12B190F83C20DA7000780421093011
S2140066D0014AC0B2FFF722BAF85C0020024B53F81A
S2140066E020002DF0BEBA00BFE032002038B50446C8
S2140066F00078084D09302A460421C0B2FFF7FEF99B
S21400670030B96B78A370AB78E370EB7884F83C30E4
S21400671038BD00BFF85C002038B504460078114D3F
S21400672009302A460421C0B2FFF7E8F9C8B9A378B1
S2140067302A78022B0CD004D863B920462DF06BFAC9
S21400674001E0FF2B0AD02046BDE838402DF038BACD
S214006750002AF2D120462DF054FAF4E7002AF9D1A7
S214006760EBE738BDF85C0020F8B504460B78284AFD
S2140067700D4642F823004370FFF7B8FF636B254AC7
S2140067805C631A632046FFF7C7FF20462DF018FA11
S2140067904FF4801363600123626BA66B0532E260E0
S2140067A01D4A23722261A21C2375A26166B11B4A90
S2140067B084F82030E261E21C6262194A84F82C30C8
S2140067C004F13C03A26223630627EA79A96802EB78
S2140067D04203002E21F8237001EB83000CBF022336
S2140067E00423C370012383700E4B04348360531C50
S2140067F04460DBB20C4C03EB430341F8234001EB4F
S214006800830000234360094B02328360EA71F8BDBF
S214006810E03200203F3C03000340300101FF30011E
S21400682002FF10019D660000080001004D66000092
S21400683002464179D37808480139042B00EB8110D1
S21400684008D8012B04D80BB92DF0DBB92DF0E3B92D
S2140068502DF0EBB9704700BF8C1B00200246417933
S214006860D37808480139042B00EB811008D8012B97
S21400687004D80BB92DF0CFB92DF0C3B92DF0D5B98A
S214006880704700BF8C1B002030B587B004464579A2
S214006890FFF7ACFA012822D1E2786B1E042A1ED834
S2140068A0DFE802F00431031F2800104663784FF437
S2140068B080728DF804304FF48273ADF806300623EC
S2140068C0ADF8083001238DF80B3000238DF80A0050
S2140068D001A8CDE903238DF81430FFF7BBFA07B003
S2140068E030BD0A4A02EB83135B6B5B79181E18BF38
S2140068F00120DBE7054A02EB83135B6B5B79B3FA97
S21400690083F04009D2E70020D0E700BF8C1B0020B0
S21400691030B587B004464579FFF768FA012829D1D3
S214006920E3786A1E042B25D8DFE803F00B0B0B0375
S2140069302600164B03EB82135B6B5B79003B18BF9C
S214006940012362788DF80A308DF804204FF48272A5
S2140069500123ADF8062006228DF80B30ADF808208E
S21400696000234FF4807201A8CDE903238DF814307C
S214006970FFF770FA07B030BD044B03EB82135B6B76
S2140069805B79B3FA83F35B09DBE700BF8C1B00205F
S21400699010B586B00446FFF729FA012812D16378AD
S2140069A0094A8DF804304FF48273ADF806304FF480
S2140069B08073CDE90223002301A804938DF81430D8
S2140069C0FFF748FA06B010BD0800070110B586B0FC
S2140069D00446FFF70BFA012820D16278104B8DF899
S2140069E004204FF4827294F8A01094F8A100597015
S2140069F01870ADF8062004934FF4807202230949FC
S214006A0001A88DF81430CDE90212FFF723FA94F8A6
S214006A10A130013B18BF012384F8A13006B010BD99
S214006A20FC5C00200800050110B583780446E3B13D
S214006A300379022B06D143790C48013B00EB831007
S214006A402DF0F3F8A379022B02D12046FFF71CFFA6
S214006A502046FFF7BBFF02236078A4F86C3055226F
S214006A60BDE8104012212CF020BF10BD8C1B00206A
S214006A704388094A082113808388538083681B8AC9
S214006A80938090F8A03093718379D37100780430A6
S214006A90C0B2FFF743B800BFF255002038B50D4628
S214006AA004460178104812F069FB4FF602739D42C7
S214006AB00CD163791BB10D4A12789A4201D2012398
S214006AC063712046BDE83840FFF7D2BFB5F57F4F6B
S214006AD0F7D120462DF022F9A378022B0CBF012215
S214006AE00022A3689A70ECE7FBED0300DE5C002052
S214006AF0024B53F82000FFF7D1BF00BF0833002039
S214006B0038B504460078134D04302A460821C0B232
S214006B10FEF7F4FF20B1BDE838400F4812F02EBB58
S214006B202B8863806B88E978A380AA88A3681A827A
S214006B30AB7984F8A030EB79A37119B1074B1B78B9
S214006B408B4205D2064812F019FB23780133637195
S214006B5038BD00BFF255002015EE0300DE5C0020B5
S214006B603EEE0300F8B504460B78474A0D4642F859
S214006B7023004370FFF7C4FFA268444BD465D36478
S214006B80434B02265365434BA11C13654FF4401339
S214006B90E36001236161E1623F49103221632265AF
S214006BA0211D3E4AA1633E483E49626504F1A002AB
S214006BB0A061E163E265E01C611D3B4A20626164FE
S214006BC03A483B492266A21D2374237784F828306E
S214006BD084F8343084F84030A16484F84C6084F83B
S214006BE0583084F864306062A266E879AA6800EBE0
S214006BF0400102EB810704F10C0CC7F804C04FF00B
S214006C00060C2C4F42F82170C118C9B201EB4101A5
S214006C1042F821C002EB810700217960264F84F8F4
S214006C2080302767254F84F89830A767244F254B78
S214006C30E767254F84F8746084F88C60C4F89C304D
S214006C4004F16C06831CC4F88470C4F890601F4F6F
S214006C501F4EDBB203EB4303C4F89460C4F888709D
S214006C6002EB83067034746008261A4C42F8234000
S214006C70C31CDBB203EB430302EB8304043042F88D
S214006C8023606160E871F8BD08330020893C03008A
S214006C90CB3C0300296A000001FF300104FF2001FD
S214006CA01000300102FF200105FF300100FF300117
S214006CB003FF2101070001084A002100E4820400C6
S214006CC051001000E6820400E7820400550021000F
S214006CD06F0018001200010400239B6AB3F5804F72
S214006CE003D21968064A914203D0002303708360DA
S214006CF07047012202709A689B694260F7E700BFFE
S214006D0007B0CD5E024B034A1A602EF08FBB00BF61
S214006D100000002002020FF073B53F4B04461A78BD
S214006D201AB102221A7002B070BDCDE90022002806
S214006D30F9D001261E7037F08BFA384D384B1860A4
S214006D4016F0FEFF2B785BB902F0F2F940B9354831
S214006D500823354A3549006801F038FE00B92E7020
S214006D60334B5A68E260334A9A601A6E22605A6E53
S214006D706260D3F87021A2601B6E5C042CD52E4A8C
S214006D80D368D807FCD42D4B1A68531C29D04FF46F
S214006D90801393402A4A13660423294C4FF08042FE
S214006DA023664FF480632366102323664FF4005354
S214006DB06846236601A9226663662CF0C7FF009B1F
S214006DC02366019B63662B78002BACD0164B1A68A3
S214006DD022665B686366A6E71A4AD368D907FCD4BE
S214006DE0D1E7194B1B78002BD6D1184B5A68144B99
S214006DF012B94FF480121A66154A526812B94FF447
S214006E0000121A66134B5B68002BC5D14FF4800244
S214006E100B4B1A66C0E700BFFF5C0020005D002039
S214006E2040330020386700204433002000710800FB
S214006E300080004455CEAC000000044004670020EB
S214006E400090004400000450FE5C002000800550C6
S214006E5000C005500000065038B5224D04462B7879
S214006E60012B02D001232B7038BD0028FCD02CF05B
S214006E7092FF013009D02CF08EFF40F201139842A9
S214006E8003D0194AD368DB07FCD42268174B1A666E
S214006E9062685A66A268C3F87021E268D40744BFE5
S214006EA000229A60124B1A68013213D1114A1278E6
S214006EB082B911494968C80748BF1A600F4A526824
S214006EC0D10744BF01221A600D4A5268D20744BF58
S214006ED002221A6016F03CFF0A4B186837F0B3F926
S214006EE00023C0E7FF5C0020000004400080004450
S214006EF004670020FE5C00200080055000C005509E
S214006F00000006504033002070B50024A36AB3F595
S214006F10804F23D21A68134B9A421FD1124E3378F1
S214006F2013F0FD0518D14FF480341048FFF7F4FE37
S214006F30032004F0CBF90E4B0320DC6004F0AAF922
S214006F400C4B1C61AB6ADB69984704460748FFF7A1
S214006F5083FF0CB901233370204670BD4FF4817453
S214006F60FAE700BF07B0CD5EFE5C0020303300209D
S214006F7000A000440090004413B5204B1B7803B9D2
S214006F80FEE700231E4CCDE900336A4608231D4960
S214006F90206801F01BFDF8B91B4AD2F84031D2F840
S214006FA040211F2B4FF0010311D9203A9340019A3C
S214006FB01A43019208236A461249206801F08EFEA1
S214006FC0124B134A1A602EF031FA02B010BD9340ED
S214006FD0009A1A430092EDE72D28F1D10A4AD2F81A
S214006FE04031D2F840211F2B4FF0010385BF203AD5
S214006FF093409340019398BF0093DBE7FF5C00202B
S214007000386700200071080000800044000000205F
S2140070100B020FF038B50025AB6A0446B3F5804F77
S21400702010D21B6BB3F5804F0CD20748FFF774FEE7
S214007030AB6A20461B6B5B689847BDE83840024841
S214007040FFF70ABF38BD00BF4C33002013B500243D
S214007050A36A0190B3F5804F13D21B6BB3F5804F34
S2140070600FD20948FFF758FEA36A01211B6B01A83F
S2140070709B69984704460448FFF7EEFE204602B098
S21400708010BD4FF48174F9E74C33002070B500262C
S214007090B36A0446B3F5804F0D4612D21B6BB3F5A8
S2140070A0804F0ED20848FFF737FEB36A20461B6BA8
S2140070B029469B69984704460348FFF7CDFE2046BD
S2140070C070BD4FF48174FAE74C33002070B500268B
S2140070D0B36A0446B3F5804F0D4612D21B6BB3F568
S2140070E0804F0ED20848FFF717FEB36A20461B6B88
S2140070F02946DB69984704460348FFF7ADFE20465D
S21400710070BD4FF48174FAE74C330020F8B50027C1
S214007110BB6A0446B3F5804F0D46164611D21B6B6C
S2140071207BB10948FFF7F8FDBB6A20461B6B324669
S21400713029465B6A984704460348FFF78DFE2046BB
S214007140F8BD4FF40174FAE74C33002070B5002602
S214007150B36A0446B3F5804F0D4612D21B6BB3F5E7
S214007160804F0ED20848FFF7D7FDB36A20461B6B48
S21400717029469B6A984704460348FFF76DFE20465B
S21400718070BD4FF40174FAE74C330020F0B50027C9
S214007190BB6A0446B3F5804F0D461646ADF5337D03
S2140071A020D21B6BB3F5804F1CD21048FFF7B4FDFE
S2140071B0BB6A20461B6B40F2C1225B6A01A9984756
S2140071C0044630B10948FFF747FE20460DF5337DEB
S2140071D0F0BD836A32461B6B2946DB6A01A89847D6
S2140071E00446EFE74FF40174EFE700BF4C3300208E
S2140071F010B50024A36AB3F5804F10D21B6BB3F50D
S214007200804F0CD20748FFF787FDA36A1B6B1B6BEA
S214007210984704460348FFF71FFE204610BD01248A
S214007220FBE700BF4C330020F0B58FB0044601A842
S2140072300E461546FFF7EEFE9DF80C30012B12D1D8
S214007240B5F5402F27D8B4F5402F24D86319B3F5E9
S214007250402F20D821462A46304613F031FA002423
S21400726020460FB0F0BD0027BB6AB3F5804F15D29D
S2140072701B6BB3F5804F11D20A48FFF74DFDBB6A72
S2140072802A461B6B314620465B6B984704460548EA
S214007290FFF7E2FDE4E740F20244E1E740F20114C2
S2140072A0DEE700BF4C330020F0B58FB0044601A8DF
S2140072B00E461546FFF7AEFE9DF80C30012B1FD18B
S2140072C0B5F5402F06D8B4F5402F03D86319B3F5AB
S2140072D0402F13D940F2024420460FB0F0BDE258CA
S2140072E0013225D104339D42F9D82A46314620463C
S2140072F02CF081FD0028EDD00024EDE70023F2E716
S2140073000027BB6AB3F5804F15D21B6BB3F5804FD1
S21400731011D20A48FFF700FDBB6A2A461B6B3146AE
S21400732020469B6B984704460448FFF795FDD3E735
S21400733040F20344D0E740F20114CDE74C3300207E
S21400734070B58EB0044601A80D46FFF763FE9DF8A3
S2140073500C30012B22D144EA0503C3F30C03002BA7
S21400736033D1B5F5402F04D940F2024420460EB082
S21400737070BDB4F5402FF7D82544B5F5402FF3D8A7
S214007380204604F500542CF02FFDAC4202D0002815
S214007390F6D1E9E70028E7D00024E7E70026B36A3D
S2140073A0B3F5804F14D21B6BB3F5804F10D20A484A
S2140073B0FFF7B2FCB36A29461B6B2046DB6B984787
S2140073C004460548FFF748FDD0E740F20444CDE701
S2140073D040F20114CAE700BF4C330020BFF34F8FC2
S2140073E00549064BCA6802F4E0621343CB60BFF35C
S2140073F04F8F00BFFDE700BF00ED00E00400FA0578
S21400740070B5D0B1C9B10E4E431E013913F8014F05
S2140074102046325D02F00302012A11F8012F08BF50
S21400742004F12000B55C05F00305012D08BF2032ED
S214007430801A01D1002CE9D170BD0120FCE700BF05
S21400744041AA04000348044A0449121A92102CF078
S2140074501EBD00BF34410000D0420000446400203E
S21400746008B5154B83F30A8800F030F8FFF7EAFFFB
S214007470124B13498B4212D30020124B12498B42F7
S21400748018D3FDF72FFC186850F82240586840F8CB
S2140074902240013298688242F5D30C33EAE7002294
S2140074A0F8E71C6844F8220001325C68A242F8D370
S2140074B00833E4E70022F8E70800002000CF0400C5
S2140074C00CCF04000CCF04000CCF0400124B134A60
S2140074D070B59A60D3F88820114D42F47002C3F854
S2140074E088206FF0010205F50054226641F2FF7213
S2140074F062660222C3F8D020BFF34F8FBFF36F8FB0
S2140075004FF44036032003F0E1FE0320E66003F06C
S214007510C1FE2E6170BD00BF00ED00E0004000001F
S21400752000800044014B1860704700BF0C670020C5
S214007530054B1860054B1B6F03F00703032B01D1A7
S21400754034F038BF704700BF14670020008000503A
S2140075502DE9F04104464FF001080C250D4E0CB9FC
S214007560BDE8F08194FAA4F0B0FA80F00F2808FA8B
S21400757000F2C8BF103824EA0204CABF05FB006246
S21400758005FB0062B4325768002FE8D09168C0B29D
S214007590B847E4E75C33002008B50C4836F0F6FE42
S2140075A0192003F085FE28B1192003F08FFE19205C
S2140075B003F070FE1A2003F07BFE28B11A2003F0B9
S2140075C085FE1A2003F066FE002008BD44850400F0
S2140075D02DE9F0410E461746054618B30F2923D865
S2140075E00378DBB1013BDBB2022B19D8104AD35C1F
S2140075F06A78D340DB0717D50E4BD3F81043ACB9E7
S21400760036F026FE80463A462846314602F0BEFB55
S214007610404636F018FE2046BDE8F0817F23E7E7B7
S2140076200023E5E72224F6E72124F4E70224F2E724
S2140076303883040000C0035010B5044610B3037826
S214007640E3B1013BDBB2022B1AD8104AD35C627856
S214007650D340DB0718D536F0FBFD0122617823788E
S2140076608A4030214B4341F2100103F1A04303F559
S21400767070335A5036F0E7FD002010BD7F23E6E752
S2140076800023E4E72220F8E72120F6E73883040009
S21400769010B5044610B30378E3B1013BDBB2022B0E
S2140076A01AD8104AD35C6278D340DB0718D536F078
S2140076B0CFFD0122617823788A4030214B4342F285
S2140076C0100103F1A04303F570335A5036F0BBFDAA
S2140076D0002010BD7F23E6E70023E4E72220F8E73A
S2140076E02120F6E73883040038B50D46044618B363
S2140076F011B30378E3B1013BDBB2022B1AD8104A70
S214007700D35C6278D340DB0718D536F0A1FD302273
S2140077102378534303F1A04303F570335B69627823
S214007720D34003F001032B7036F08DFD002038BDEA
S2140077307F23E6E70023E4E72220F8E72120F6E7A8
S214007740388304002DE9F0410D4616469846044657
S21400775000284FD000294DD00178002940D04B1E7C
S214007760DBB2022B3ED8254AD25C6378DA40D207D9
S21400777001D4FF2940D1022E01D9042E3CD136F087
S21400778067FD23780746FF2B05D03246204629683A
S21400779002F042FB28602B68013309D12378FF2BC7
S2140077A006D1174B6078D3F824142DF0AFF8286074
S2140077B029684B1C18D00C23124A03FB0122069B97
S2140077C0C2F8048093602378FF2B04D001230E4A6E
S2140077D08B40C2F82434384636F035FD002007E0EA
S2140077E07F22C2E70022C0E7384636F02CFD2D2067
S2140077F0BDE8F0812220FBE72120F9E7388304006A
S21400780000C003505C33002000D0035008B502F0DF
S214007810B3FA044B00F05530C3F82004BDE8084026
S214007820FFF796BE00E0035008B502F0A5FA044B39
S21400783000F0AA30C3F82004BDE80840FFF788BE71
S21400784000E003502DE9F04F144605460E469B46D1
S214007850C36B87B001225B6902A960689847EB6B2F
S21400786001225B6903A93046984702A82CF00EFF58
S214007870074648B10023A37563754FF0FF33A36036
S214007880002007B0BDE8F08F03A82CF00CFF012302
S214007890A375237E04EBC303DE611F846368B342D3
S2140078A00ED1206003A82CF020FF4FF0FF33207588
S2140078B0A360237D043B022B26D80023A375DFE7B5
S2140078C023681A1A53425341A37503A82CF00DFFE0
S2140078D0237D834218BFA77503A82CF0E8FE074651
S2140078E002A82CF0E4FE874218BF002303A818BFA6
S2140078F0A3752CF0E4FE074602A82CF0E0FE8742B3
S2140079001CBF0023A375D4E703A82CF0D0FE80B1DB
S214007910EB6B022230465B6904A9984704A82CF05A
S214007920D5FE0346207D032839D8DFE800F0383836
S214007930040903A8F3E7CC22237E04EBC3031A84CE
S21400794001F06EFC109B187003A8277E2CF0A3FE97
S21400795004EBC70787F82200237E03A804EBC303C3
S214007960B3F8209093F822702CF0A1FE804603A86E
S2140079702CF0A5FE8246B8F1000F15D0EB6B022264
S21400798030465B6904A9984704A82CF064FE60752D
S214007990637D6BB90023A3754FF0000838E0227EA4
S2140079A004EBC2021384CBE703A82CF03FFEEEE7FD
S2140079B094F81680B8F1000FEED0B9F1000F09D197
S2140079C0DFB10123E375637E002B4FD1012F42D137
S2140079D0677614E06B6C06EB0A015A4286EA0100F1
S2140079E010421CBF0022A2755A1E0A409B1A9945D7
S2140079F0D0D8A37D002BE3D1CEE7E37D43B94FF08B
S214007A0000084B465246314628462CF08AFBA060BA
S214007A10A27D12B123694B4423611A49237E09785B
S214007A2099422AD901332376BBF1000F27D032B30F
S214007A30E37D23B3B8F1000F21D1032F1FD0A16837
S214007A404B1C1CD0109B2246009328460123FFF7B0
S214007A50F9FEA07513E095F8343063B9EB6A01338C
S214007A60CFD1032FCDD10123A376C8E7012FCFD0E6
S214007A70032FC4D1F7E79846C3E70023A375A07D7C
S214007A80FFE600BF5C8304002DE9F04F0E469846E3
S214007A9000238BB004464FF0FF31104617468DF892
S214007AA0133001F0A7FBB6F5801F20D2314605AA99
S214007AB004F108002CF03CFD451C014603D1237C54
S214007AC0BBB92D2010E0384601F094FB0122394660
S214007AD020460DF113032CF076FB0028EFD09DF81E
S214007AE0133088F8003000200BB0BDE8F08FB01CD3
S214007AF0E5D1E56A691C36D12046616A2CF057FA52
S214007B000546B31C18BF0123DFF8CC900193636AC7
S214007B10626C0293236805A902FB053AE36B052213
S214007B205B695046984705A82CF04BFE2CF06EFE7D
S214007B3050462CF076FE4FF0000B824601464B1C5A
S214007B4005D0636C81EA0A025B42134211D02946D3
S214007B5020462CF02CFA029BAB422CD0BBF1000F37
S214007B602CD10546D3E72368ED1A636CB5FBF3F515
S214007B70C7E7484601F03EFB0DF113034946204691
S214007B80019A2CF020FB034690B1B21C03D0D9F822
S214007B900020B2420CD19DF8132003930D4B88F8B9
S214007BA0002049461A68384612F08AFD039B9B4619
S214007BB0D9F80810C3E7BBF1000F82D0B6F5801FD6
S214007BC091D2314698F800307A6804F1080001F046
S214007BD03FFA88E758830400383B00202DE9F3413C
S214007BE00446174698460E46184D816AE36A8B424D
S214007BF001D04B1C02D102B0BDE8F081284601F04E
S214007C00F9FA0122294620460DF107032CF0DBFA8B
S214007C1038B14346294620469DF80720B847002835
S214007C20E9D0A9684A1C04D1696820462CF04CFAB1
S214007C300146012EDAD16B6881EA0302636C5B426F
S214007C401A4218BF4FF0FF31D0E700BF0C3B0020B0
S214007C502DE9F04F4FF0FF334FF6FF720025044634
S214007C6000F10806C0E909238BB0C362056205630C
S214007C70304688462CF02DFC20462CF068F960BB78
S214007C80204641462CF0E3F920462CF060F960BB14
S214007C905E200BB0BDE8F08F2368E26B606C57691E
S214007CA000FB0530052205A9B84705A82CF089FD7C
S214007CB0012807460CD1294620462CF099F9012FB9
S214007CC0024600D10132294620462CF05FF903E037
S214007CD02CF0A1FD0028EED10135E3699D42DBD3EF
S214007CE020462CF034F90028CAD000254FF0FF3982
S214007CF04FF6FF73CA46A846C4E90853E369984599
S214007D000AD3A5EB0905012D2CD84FF6FF72636A3E
S214007D1093423CD16720BCE72368E26B606C5769EE
S214007D2000FB0830052205A9B84705A82CF049FD38
S214007D30834605A82CF01CFD074658462CF066FD29
S214007D4068B1574538BFC4F82480B94528BFB9463E
S214007D50BD4238BF3D46BA46236A0133236208F166
S214007D600108CBE74FF6FF7300256362E3699D4287
S214007D70CBD2676C2068E36B052207FB05005B69C6
S214007D8005A9984705A82CF0F3FC0135EEE7E26B51
S214007D90676C2068694607FB030055690522A847FB
S214007DA068462CF0E5FC626A2368606C4B4D00FB6D
S214007DB002302CF036FD4FF0FF33A062E3622A4615
S214007DC06FF00101204605ABFFF75EFE002846D1A6
S214007DD0AD6829462046E5622CF095F8206320B968
S214007DE02046E16A2CF070F9E062294620462CF025
S214007DF06BF90546A36A9D4233D120462CF056F80F
S214007E0000278046B946E36999453CD3B84559D919
S214007E102046616A2CF0CBF80026054604F1400A9D
S214007E20B74212D8626C2368694602FB0539E36BD9
S214007E3005225B694846984768462CF099FC5346ED
S214007E4002464946E06B2CF0EEFC294620462CF014
S214007E50AEF80136B0450546E2D1642019E7A56ABA
S214007E60B7E7294620462CF04EF8236B29460344F4
S214007E700746236320462CF027F90546002FB9D184
S214007E80C4E90B07B6E7636C2568052203FB0955B2
S214007E90E36B05A95B692846984705A82CF091FC7A
S214007EA02CF0B4FC58B128462CF0BBFC014620460A
S214007EB02CF029F8636C143B984208BF013709F18F
S214007EC00109A0E730462CF004FB002320461946A3
S214007ED0034AFFF783FE0020DBE600BF643B00207A
S214007EE0B54103002DE9F041036B9046826B0768AD
S214007EF09A4288BF8363426C436A90B002FB037762
S214007F00C36B0E46052201A95B69044638469847AE
S214007F1001A82CF056FC01280146307057D0656C3D
S214007F20E26B2368606AD2F814C005FB00300522B5
S214007F3006A9E04706A82CF044FC01284FF00005EF
S214007F4023D0D4E90A3201219342CDE90B458DF8BE
S214007F5034800E958DF83C102AD1194620462CF018
S214007F60B3F8236B626C14339B1AE06223630C9B9A
S214007F7053B99DF83C303BB1626A616C2368E06B94
S214007F8001FB02312CF0D5FB0C9DE36B05225B69EF
S214007F9001A93846984701A82CF013FC30702846F3
S214007FA0236BA26B9A4288BFA36310B0BDE8F08132
S214007FB0237C33B91C490BAA04F1080001F096F89B
S214007FC0D5E72046194A0BABFFF708FECFE7237C20
S214007FD023BB2246164904F1080001F087F8616ABF
S214007FE020462CF005F8616A421C20462BF0CEFF96
S214007FF0054620B9236B626C1344143B236320466A
S214008000A16A2CF061F82368A062C01A636CB0FB0A
S214008010F3F0606220462CF09AF8B6E7002320467C
S214008020044AFFF7DBFDDAE78987000005870000D2
S2140080304F420300EB41030073B50D46D11E4A4282
S2140080401C461B7E4A419A4226D1296823689942DB
S21400805022D3636899421FD8114E0DF107033246AA
S214008060FFF712FDC0B972686B689A4214D19DF88A
S2140080700730DA1E53425341227E93420CD1636985
S21400808001336361D4E90323934205D22968A268C9
S21400809042F8231001332361012002B070BD00BFF7
S2140080A0643B00202DE9F04F9B4689B09DF8483090
S2140080B09046514A0193136907465B450D46C0F04A
S2140080C09580D94653680093B9F1000F7BD0FB6BBF
S2140080D001225B6905A90098984705A82CF0E3FAE9
S2140080E0454B1B68984240F0848005A82CF0E7FAC0
S2140080F00428064615D105A82CF0E8FA009B04468D
S2140081001E44019B002B3ED1804512D91C46A8EB8D
S2140081100008384600992BF0D7FFA9EB0409009019
S214008120D2E7FB6B02225B69009806A9984706A86F
S214008130E2E7A0EB08045C4528BF5C46032C4644F7
S214008140ABEB040B1DD9FB6B294630465B69A208D6
S214008150984724F0030304F0030A1E441D44DDF888
S2140081600480BAF1000FD4D0FB6B012206A930467A
S2140081705B6998475246284606A912F0A1FA55446C
S214008180C7E7A246EBE7824600F0030302932B18EC
S21400819003930644039BA6EB0A00A3EB0A05029B87
S2140081A09A4514D1BAF1000FB3D0FB6B012206A991
S2140081B05B6998475246284606A912F03DFC0028FF
S2140081C0DDD04FF03609484609B0BDE8F08FFB6BAE
S2140081D0012206A95B6998470422284606A912F0E0
S2140081E02BFC0028EDD1AAF1040AD3E74FF063096F
S2140081F0E9E74FF06F09E6E7903B00202DE9F041F4
S2140082000F4616469846044688B060B390F8345039
S214008210FDB101212BF090FE00210E9BCDE905114A
S214008220CDE902379DF83C30CDF804808DF81C303F
S214008230237C04968BB90D4901AA04F1080000F0CE
S21400824055FFDDE90553E06B002E08BF1D462CF0F8
S2140082500CF8284608B0BDE8F0812046044A01AB79
S214008260FFF7BCFCEDE70546F3E700BF1942030045
S214008270398000007FB590F84260044601920DF107
S2140082800B030A46304611492BF0F7FF012E054630
S214008290E36B17D132465B6903A998479DF80B102C
S2140082A0039B019A59B19BB243EA02430122284636
S2140082B00393E36B03A99B69984704B070BD62F310
S2140082C00F03F3E701229B6901A9F5E7903B002025
S2140082D02DE9F04F99B00E460D920A69416C0B934A
S2140082E01439D31DB3FBF1F3013302EBC302036B66
S2140082F004469342C0F001820023DFF804940893FA
S214008300E36A48461946059300F074FFD6E903373A
S21400831007930B9B022B4DD1CC2F40F0D7810D9BA2
S2140083203BB1314620462BF0FEFF656C14900120D1
S21400833044E00120079B656C1B68149300F0010065
S21400834000280CBF04230823782F0E9349D8059ADB
S2140083506B1E1340ED1A3B1D9D423CD2002F3DD0B4
S214008360082D3ED80023042506934FF0040A3368F0
S21400837006990B98C9F80030C9F810702CF0B9F9B6
S2140083804FEA9A030F93059B89F814000393002382
S21400839009930C9304930A93616C039B4A1E1A403C
S2140083A08B1A27B35544AB4223D8236B5B1A13446E
S2140083B023632FE1782F656CB9D8F07D0D9B002BD9
S2140083C0BCD0E36B01225B69706816A9984716A8B3
S2140083D02CF06DF9B4E700250695C6E70425069748
S2140083E0C3E7012300254FF0080A0693BFE753456D
S2140083F0DBD3A3EB0A029742039BB84628BF9046FE
S2140084009742534428D90122D9F8101089F817202A
S2140084108F4226D10399C9F80410049299F81720C0
S2140084200AB399F818100398CA1C09EBC2025060E8
S21400843004980131A2F80880907289F81810B8F1F3
S214008440000F07D00B9A022A40F08180099A72B179
S214008450012209929B46ABE0049A002A18BF032229
S214008460DBE70222D9E7039AC9F80420E7E70C9A6B
S2140084704244032AEED9E26B1846956914A90122F4
S2140084800993A847099B05460028E1D03D2D40F0FA
S2140084901E8104F1080303932368059A606CA2EB1F
S2140084A0030ABAFBF0FA00FB0A302CF0BAF9E16ACC
S2140084B0804620462BF008FEA26A824200F00F811A
S2140084C0626CD9F80830511E0B40216B2768891A58
S2140084D00B442363089BE062DF1BB7FBF2F7BA4549
S2140084E040F0FA80059BB3EB080A12D0E36B4FEA24
S2140084F09A0241469B6998478346E36A059A534425
S214008500E362236B03989B1A434423632BF0E1FF3B
S214008510DA462368616CE06B01FB07312CF0F6F855
S21400852020462BF014FD20462BF011FE2063BAF1F6
S214008530000F00F0D4803269616CD31D1439B3FB90
S214008540F1F3013302EBC3029042A5D2BFE00D9ACD
S214008550002A77D1B8F1030F4FEA98026ED9E16B83
S21400856018468D6907991093A847109B0546C0B911
S21400857018F0030515D0079A28F0030B02EB0B0141
S2140085809B444FF0FF3215A815922A46109312F01E
S21400859097F8E26B5846956915A90122A847054643
S2140085A0109B9B46079A42440792002D40F08B8012
S2140085B0049B16A80193069B009399F81420434643
S2140085C0316800F0CDFDE36B0F9A9B69039816A9FE
S2140085D09847039A051E089B18BF13460893434600
S2140085E05246204603992BF09CFD236B08F10302AC
S2140085F0A3EB0A0322F003029B1AC9F808002363C0
S214008600002D7FF443AF0C9BA7EB080743440C9365
S214008610CDF80CB0204603992BF056FD00250390AC
S214008620002F7FF4B9AE364A3168936804F108002B
S214008630E36252680B9B00F00BFD49E09B46454603
S21400864007999EE79B4606F120021092F27D70681D
S214008650A2B1002296F818C00A99D5B2AC4511D935
S214008660109D02F1010E35F832508D4228D90E9831
S21400867006EBC2020144D069084403E00E9A0A9948
S2140086800A441044E26B15A9556901221193A847C4
S214008690159A0A9B1392E26B043395695846012299
S2140086A013A90A93A847119B054603EB0802A2EB01
S2140086B00B02042A7FF679AF28B90BF1040BC5E745
S2140086C07246491BC9E7CDF820B088E770252F46CB
S2140086D0384619B0BDE8F08F4FF0000A19E7326946
S2140086E0616CD31D1439B3FBF1F3013302EBC30203
S2140086F0236B9342BFF404AEE9E71C27E8E700BF0C
S214008700383B0020032A2DE9F34106460D4617465E
S2140087101C4606D1237A012B23D0012002B0BDE8E7
S214008720F081DFF86080096842460DF10703FFF725
S214008730ABF960600028EDD19DF80720237A032A64
S214008740E8D0D8F804106A689142E3D1012B296971
S214008750D4F80CC007D172690CEB0103934202D91E
S2140087602074207CDAE708316144E1603B46012250
S21400877029463046FFF7ACFD60600028CAD00020CE
S214008780CCE700BF643B00202DE9F341089C032A98
S2140087901746266806D1237A012B24D0012002B082
S2140087A0BDE8F081DFF89080304642460DF10703C1
S2140087B0FFF76AF960600028EDD12568D8F8040054
S2140087C0A96AD5F844C04840CCF100031840227A84
S2140087D0E1D1012A09D1E268D8F810301344726951
S2140087E0934202D92074207CD9E72868EB6A1B1ACA
S2140087F0081AB3FBFCF3B0FBFCF083420BD1706CA1
S214008800F36A421E1340326B121A1344284633632F
S2140088102BF05AFCE862D8F81020E36808321344BC
S214008820E36001223B4604492068FFF751FD606083
S2140088300028B0D00020B2E7643B00202DE9F041CC
S2140088400025604B0E46D3F8008004461D6018B91C
S21400885021252846BDE8F08190F8347007B30A68F1
S21400886003689A4240F0A3804A6843689A4240F000
S2140088709E808A6883689A4240F09980CA68C36876
S2140088809A4240F094800A6943699A4240F08F8089
S2140088908A69C36B9A4240F08A804B698361D8E745
S2140088A068223946856B11F07BFDD6E902123368E3
S2140088B004F1080023607368A5636360336963612D
S2140088C07369A3612BF017FEB36904F14000E363FC
S2140088D09B68984720B9676C17B16368B3FBF7F7D6
S2140088E094F84330E761002BB2D00023656C236612
S2140088F0002D64D0002F62D02368B3FBF5F205FB91
S2140089001233002B55D16668B6FBF5F305FB1363EF
S214008910002B4ED120462BF0E6FAA369043303441D
S2140089209E4248D340F634726369CC3B934244D8A7
S214008930B5F5805F43D3032120462BF0FDFAD4E93A
S2140089400001E36B1B6898470546E36B0220DB6873
S2140089509847CDB941462046FFF77AF96428054680
S21400896004D141462046FFF773F90546666C5DB9AB
S214008970236A2046143E5E432BF0B5FAA3690433FF
S21400898003449E4238BF5A25002D0CBF0123002306
S21400899084F8343007D1D4E900010B4A1368013358
S2140089A013602BF042FEE06B2BF05FFC51E75D2579
S2140089B04FE759254DE75A254BE75F2549E75B25E5
S2140089C047E700BFC8340020C43400202DE9FF412B
S2140089D00C4616461F46054680B390F834307BB3E7
S2140089E0B1F5801F2ED2DFF8608001212BF0A4FAAB
S2140089F02146424628460DF10F03FFF745F8044688
S214008A0070B99DF80F30012B11D1D8F81030BB4249
S214008A1012D10246009031462846FFF743FB044633
S214008A20E86B2BF022FC204604B0BDE8F081022B58
S214008A3014BF2D246024F3E76324F1E72124F2E732
S214008A401124F0E72924EEE7903B00202DE9F043BF
S214008A5085B00C4617461E460546DDF8308098B3AE
S214008A6090F8343093B3B1F5801F31D2DFF86490BC
S214008A7001212BF061FA21464A4628460DF10F03E4
S214008A80FFF702F8044688B99DF80F30012B14D181
S214008A90D9F8102006EB08039A4213D300904346F9
S214008AA0324639462846FFF7FDFA0446E86B2BF0B7
S214008AB0DCFB204605B0BDE8F083022B14BF2D2456
S214008AC06024F3E76324F1E72124F2E71124F0E7BA
S214008AD02924EEE7903B002073B50C461646054663
S214008AE030B390F834302BB3B1F5801F24D2012177
S214008AF02BF022FA21462846104A0DF10703FEF70E
S214008B00C3FF044680B99DF80730032B0CD0022B18
S214008B100CD1284609492BF006FC3060E86B2BF098
S214008B20A4FB204602B070BD2D24F7E76124F5E7CC
S214008B302124F6E71124F4E72924F2E7903B0020ED
S214008B402DE9F3411E4600230C46174605463360C2
S214008B5050B390F834304BB3B1F5801F28D2DFF80D
S214008B60548001212BF0E8F92146424628460DF1B3
S214008B700703FEF789FF0446A0B99DF80730032BCC
S214008B8010D0022B03BF01233B600423D8F810301B
S214008B9018BF38603360E86B2BF067FB204602B0E6
S214008BA0BDE8F0812D24F6E72124F7E71124F5E748
S214008BB02924F3E7903B002073B50446056B2BF0A1
S214008BC092F9636E03449D422CBF00230123854225
S214008BD094BF00252D1A207C84F85030656584F8F3
S214008BE05800A8B100230C4E1A4619462046009697
S214008BF02BF05DFC002305461A46194620460096D3
S214008C002BF05EFCE3682844984294BF0020C01A0C
S214008C10E06502B070BD00BFFFFF0F002DE9F3470F
S214008C201E4643690446B342884617469DF8289078
S214008C304ED300258DF8075020462BF054F9D4F873
S214008C4030A082450AD2236AB5EB430F06D2002233
S214008C5020460DF10701FFF745F9B8B39DF8073038
S214008C60012B05D1002220460DF10701FFF73AF946
S214008C70B9F1030F06D0314620462BF024F9256BB8
S214008C80854227D3144D4FF0FF31284600F0B2FA44
S214008C904B46294600222046C5E90376C5F80080E3
S214008CA0FFF716FB236E054663B12046FFF784FFE9
S214008CB094F8503013B994F858301BB1236E04F171
S214008CC050009847284602B0BDE8F0870135B3E764
S214008CD06225F7E71C25F5E7643B00202DE9FF41F8
S214008CE00F4690461E46054698B390F8343093B328
S214008CF0B1F5801F31D21A4C02212BF01DF9224605
S214008D00394628460DF10F03FEF7BEFE024678B13F
S214008D10012342460093394633462846FFF77EFF36
S214008D200446E86B2BF0A1FA204604B0BDE8F081BB
S214008D309DF80F30012BEBD12169B142E8D10093A9
S214008D40414633462846FFF7ADF904460028DFD1F2
S214008D50E7E72124E8E71124E6E72924E4E700BF53
S214008D60903B00202DE9F04790F8423086B0012B6A
S214008D7005460391A1EB020740F0AA80FF2F03D817
S214008D801E464FF0640807E00226012B14BF4FF082
S214008D9032084FF06408013600244FF6FF79DFF8FA
S214008DA044A195F84230012B14BF322364239C4221
S214008DB002D35FFA88F40DE005AB224651462846FA
S214008DC02BF08FFA95F84230012B059B34D14B459A
S214008DD02DD1E4B295F84230012B14BF3222642222
S214008DE0121BB24217D3012E39D10022012B059750
S214008DF08DF8132027D1082205A90DF113002BF0BA
S214008E002CFD9DF81330059A42EA03222146284697
S214008E10FFF730FA40B10223324900932846CC23AC
S214008E20096803AAFFF7FAFE06B0BDE8F087DBB2D2
S214008E3003B902340134B4E7591CCAD09BB2002BE4
S214008E40F8D10134F6E7102205A90DF113002BF036
S214008E5004FD9DF81330059A42EA0342D6E7039ACA
S214008E60012B059223D10823202205A90DF113001A
S214008E708DF813302BF0F1FC9DF8132012022146DA
S214008E802846FFF7F7F995F84230611C012BC9B266
S214008E901AD10028BFD12846BDF81420FFF7EAF9FA
S214008EA00028B8D10234BDF81620E1B2AFE710238F
S214008EB0202205A90DF113008DF813302BF0CDFC00
S214008EC09DF813201204DAE70028A4D1059A9EE73D
S214008ED0B7F5803F4FF00106BFF457AF4FF03208AA
S214008EE05AE700BF903B002070B586B00E46054698
S214008EF00392A0B390F834309BB3B1F5801F32D202
S214008F0002212BF019F831462846184A0DF11703AE
S214008F10FEF7BAFD044618B99DF81730032B0ED19C
S214008F200223314600932846CC2303AAFFF776FE99
S214008F300446E86B2BF099F9204606B070BD022B6C
S214008F400BD10A4928462BF0EEF9039902468142D6
S214008F50EFD02846FFF706FFEAE76124E9E7212479
S214008F60EAE71124E8E72924E6E700BF903B002063
S214008F70F7B50C461646054668B390F8343063B32A
S214008F80B1F5801F2BD202212AF0D6FF21462846B3
S214008F90144A0DF10703FEF777FDC0B99DF80730B8
S214008FA0032B14D0022B14D10E4928462BF0BBF904
S214008FB0471C024639462846FFF7D4FE044606B14B
S214008FC03760E86B2BF051F9204603B0F0BD2D2436
S214008FD0F7E76124F5E72124F6E71124F4E72924CE
S214008FE0F2E700BF903B002030B50C46054685B042
S214008FF028B390F8343023B3B1F5801F23D2022172
S2140090002AF09AFF0DF10F03214628460F4AFEF775
S2140090103BFD034688B99DF80F20032A0DD0032296
S2140090202146009202462846FFF7F8FD0446E86B04
S2140090302BF01BF9204605B030BD2D24F7E7212480
S214009040F8E71124F6E72924F4E700BF903B002058
S2140090502DE9F043466886B3056898464FF0000C45
S214009060A946AE4655F83C400CF1010CC4F3130774
S214009070013401D0B94217D0B4450EF1080EF1D133
S2140090802F46002403E0B44207F1080712D055F833
S214009090343001340133F6D1C1F3130141EA0851EB
S2140090A0C7E90012BDE8F08341EA0851CEE9001294
S2140090B0BDE8F083B8F1030F03D101230372BDE8C6
S2140090C0F083002303E0B34209F10809F5D055F810
S2140090D033400133C4F30754032CF4D1C1F3130314
S2140090E043EA0853C9E90032BDE8F0832DE9F041B0
S2140090F00646406882B0B8B10F46904600243368F2
S21400910053F8345003EBC403C5F30752C5F31301F9
S214009110013506D05B683046CDF80080B84718B1F8
S214009120706801348442EAD302B0BDE8F08100BF23
S214009130024B1968024B1868FFF780BB18670020BF
S2140091403867002008B535F076F8014B186008BD82
S214009150BC3B0020014B186835F068B8BC3B0020CB
S21400916073B504462248012A00EAC1119DF818503A
S21400917023F07C4007D9961E012E28D9073303F02A
S2140091807F03194308E09DF81C300A43DB0603F012
S214009190C053134343F060410023C4E900108DF828
S2140091A00730B5B1202221460DF107002BF055FB04
S2140091B01A220DF10700211D2BF04FFB08206368D3
S2140091C09DF8072043EA8263636002B070BD1143D6
S2140091D0E2E71B220DF1070021462BF03EFB236839
S2140091E09DF80720042043EAC2632360EDE700BF32
S2140091F080FFFF0738B5094B0D461A680021044664
S21400920011F0CEF800234FF0FF322383C4E9002587
S2140092102361A260E382A37638BD00BF58830400B2
S2140092200138C0B205289ABF014B185C0120704770
S2140092305D8304002DE9F0410746154600240E46DE
S214009240596888B0490A012922464FEA510104F1BB
S2140092500104F8D8DC78997824031B88C90201F445
S214009260006104F480540C43C3F30A0352032344FE
S21400927092B24FF000089C18274B6FEA0444039301
S21400928025F07843ED4302A90DF107001B22029357
S2140092908DF807802BF0E1FA9DF80720029B02A9C3
S2140092A043EAC2630DF107001B2225F078450493BC
S2140092B002958DF807802BF0D0FA9DF80720029BC8
S2140092C06FEA144443EAC26305934FF0FF330794F2
S2140092D0069307A9BB69012206F110009847BB69EF
S2140092E005A90446012206F108009847BB694045D7
S2140092F018BF044604A90122301D984701224045A4
S21400930018BF0446BB69304603A99847404508BFC6
S214009310204608B0BDE8F08101009AB238B5104B7F
S2140093200546D3F800310C4603F00303022B0BD09E
S214009330032B0DD0012B0FD133F056F8032305B1C4
S214009340286004B1236038BD33F098F80723F6E7A9
S21400935034F084FF0623F2E701230020EFE700BF86
S2140093600080005038B5134B0546D3F820010C4654
S21400937000F0070004281AD8DFE800F003090D11F2
S2140093801500012305B1286004B1236038BD32F012
S214009390F1FF0423F6E733F027F80323F2E733F070
S2140093A029F80523EEE733F01BF80223EAE700234B
S2140093B01846E7E70080005038B5104B0546D3F84E
S2140093C040310C4603F00303022B0BD0032B0DD0C9
S2140093D0012B0FD134F044FF082305B1286004B1F7
S2140093E0236038BD33F04AF80723F6E734F03BFF36
S2140093F00923F2E701230020EFE700BF00800050BA
S21400940038B5104B0546D3F860310C4603F003031D
S214009410022B0BD0032B0DD0012B0FD134F020FFE5
S214009420082305B1286004B1236038BD33F026F860
S2140094300723F6E734F017FF0923F2E7012300209D
S214009440EFE700BF0080005041F6713210B5104CB7
S214009450104BA04294BF00240124D969DA639A68AD
S21400946001F4803122F4401242EA04529A600A4A19
S21400947090420A4AD2F818028CBF40F0020020F050
S2140094800200C2F8180209B10022DA6310BD00BF5C
S214009490005A62020000035080F0FA0200C0075033
S2140094A02E4B98424AD022D82D4B984240D014D802
S2140094B02C4B984239D00AD82B4B984232D02B4BA3
S2140094C098422FD02A4B98422CD000207047294B28
S2140094D09842FAD1284B186F7047284B98422AD0EA
S2140094E0274B9842F1D1244BD3F880007047254B88
S2140094F098422BD009D8244B984223D0234B98422D
S214009500E3D11D4BD3F88C007047214B984221D0F5
S21400951003F5740303F510539842D6D1164BD3F8CF
S21400952098007047144B986D7047134B586E7047F1
S214009530114B586F7047104B986F70470E4BD3F80F
S214009540840070470C4BD3F8880070470A4BD3F85A
S21400955090007047084BD3F8940070470048E80125
S2140095600024F400C0CF6A0080841E0000093D007D
S21400957040420F00405DC6000080E00FC0EA2101B7
S21400958080BA8C01007E560380D54302006CDC0254
S2140095900090D00337B50C460021114B0191D3F84B
S2140095A08031054603F00303022B0ED0032B11D0A7
S2140095B0012B03D101A8FFF7D5FE0D210DB1019BAC
S2140095C02B6004B1216003B030BD32F013FF0521DB
S2140095D00190F3E732F004FF02210190EEE700BFAE
S2140095E00080005038B5104B0546D3F840320C4684
S2140095F003F00303022B0BD0032B0DD0012B0FD14E
S21400960034F02EFE082305B1286004B1236038BD6F
S21400961032F034FF0723F6E734F025FE0923F2E79D
S21400962000231846EFE700BF0080005038B5144B03
S2140096300546D3F800020C4600F0070004281BD8A5
S214009640DFE800F003090D111500012305B12860BD
S21400965004B1236038BD34F003FE0823F6E732F089
S2140096600DFF0723F2E734F0FEFD0923EEE732F0A4
S214009670A1FE0C23800AE9E700231846E6E700BFB0
S2140096800080005038B5144B0546D3F808020C4647
S21400969000F0070004281BD8DFE800F003090D11CE
S2140096A01500012305B1286004B1236038BD34F0ED
S2140096B0D7FD0823F6E732F0E1FE0723F2E734F0A1
S2140096C0D2FD0923EEE732F075FE0C23800AE9E7A7
S2140096D000231846E6E700BF00800050032814D099
S2140096E005D8012805D0022809D0002005E00F285B
S2140096F0FBD1084B186FC0F3013001307047054BA3
S214009700D3F89000C0F30460F7E7024B186FC0F37D
S2140097108020F2E7008000501FB500230193252823
S21400972017D8DFE800F0131A1D272C363B51565B7E
S21400973060656A78161A401616561A272C27361AA7
S2140097405127783B3B3B3B2727275B6032F018FED0
S2140097500190019805B05DF804FB32F02BFEF7E7A8
S21400976032F00EFE02460220FFF7B8FFB2FBF0F220
S2140097700192EEE732F01EFE02460320F4E732F0D6
S21400978019FE02460320FFF7A9FFB2FBF0F25208CB
S214009790EEE7002101A8FFF7FDFEDAE7002101A8A9
S2140097A0FFF7E0FDD5E702934FF0E0231B695B0768
S2140097B005D532F0FFFD0290029B0193C9E703A98D
S2140097C002A8FFF7F9FDF7E7002101A8FFF7F4FD6F
S2140097D0BFE7002101A8FFF713FEBAE7002101A8A2
S2140097E0FFF724FFB5E7002101A8FFF74BFFB0E71E
S2140097F0002101A8FFF792FDABE7094BD3F88030B4
S21400980003F00303022BA8D0032B01D000209FE710
S21400981032F0F0FD9CE7002101A8FFF7E3FE98E791
S2140098200080005008B50120FFF776FFBDE808402D
S2140098300349884294BF01210221032000F002B8A8
S21400984080F0FA02032810B50C4627D004D8012869
S21400985004D0022817D010BD0F28FCD12BF01BF81F
S2140098602BF021F8124A013C136F23F4405343EACD
S2140098700433136732F09EFD0021FFF7E5FDBDE8D7
S2140098801040FFF7CFBF0A4A4C1ED2F8903023F0A4
S214009890F85343EA0463C2F89030DCE7044A4C1EEF
S2140098A0136F23F4806343EA84231367D3E700BF70
S2140098B0008000501FB500230193252821D8DFE83B
